:07136F0000000000002E0049
:1009E2004D0240243132333435363738392A3023F8
:1009F200480266204E203D20203200480272204EDE
:100A0200203D2020350048027A204E203D20313002
:100A120000480282204E203D2035300048028A20C4
:100A22004E203D3130300045029202050A32644FB9
:100A3200024D01026601027201027A010282010282
:100A42008A4802044F666673657420004802144D9A
:100A52007565737472610049021C204D4158202053
:100A6200202000490225204D494E20202020004907
:100A7200022E2050726F6D20202000490237205331
:100A8200616C69722020005202A301020401021467
:100A920001021C01022501022E0102374E01E4541B
:100AA20041434F203134207C2052504D004A01F204
:100AB20020204D452D4920207C004801FC323A7609
:100AC20020333A3E0048020C353A7620363A3E0050
:100AD2004C02970101E40101F20101FC01020C4800
:100AE200025E00000000002E0000C10444026E00FD
:0B0AF2000000014101E2054101E300AA
:100E9900E024D0FFE434FFFE12020FE4FCFD9002CF
:100EA9006E020398E0FB90018E75F0041203D502DF
:100EB9000380E47B0AFAF9F80203809002F5120331
:100EC900989002F5020380E0FF04F074022FF58286
:100ED900E43403F58322E024D0FFE434FFFE22E06A
:0C0EE9002440F582E43402F583E0FF228F
:100B6A009002F51203A4000000009002F974FFF04D
:100B7A00A37401F0A37404F0E4A3F0A3F0A3F012A9
:100B8A000EF5D28C1211A17F011213029002971254
:100B9A000CBB7D01E4FF12132D90029A120CBB12BA
:100BAA0012241213519002FAE024FE60740470F5C4
:100BBA009002FBE024FB60110470EAC28BD2AAD235
:100BCA00CA9002FB7405F080DC12137D900001E0EC
:100BDA00FEEFC39E40089002FA7402F080C7121317
:100BEA003F1213669002F9EFF0F460217D01E4FFF1
:100BFA0012132D20040590029D80039002A0120377
:100C0A00E11212569002F9120EE81208002001951C
:100C1A00D20190031B7427F0A37410F06385FF615F
:100C2A00AF2002819002FCE0C394144002E4F0C2B7
:100C3A00AF1206F29002F5120398D2AF9002F512A3
:100C4A000EBB1202DD12040A9002FDEEF0A3EFF0D1
:100C5A009002F512038C9002FDE0FEA3E0FFEE3352
:100C6A0095E0FDFC120237120EC490026E12038C3C
:100C7A00120244120EC49002FCE0FB04F075F00468
:100C8A00EB9001921203D5120EC7120D4E7D017F11
:100C9A000912132D7B017A02795E1212569002FA1A
:100CAA007401F0D20290031D744EF0A37420F06117
:010CBA00AF8A
:070CBB001203E112125622A0
:050800009002FFEFF083
:10080500E4A3F0A3F078027C037D017BFF7A1379E2
:100815006FFE7F071201D09002FFE06432702590D1
:1008250001E2E004F0E0D394054002E4F0E4FDFFCA
:1008350012132D9001E2E075F003A424A3F582E4E0
:10084500340221899002FFE064336002215A90014D
:10085500E2E01470022111147002211B14700221B0
:1008650020147002213114700221462405600221F2
:10087500531209DA900301E0C39407503812133F6D
:100885001213669002FFEFF0F46019120EE8900360
:1008950001E02402120ED7EFF0900301120ED0E012
:1008A500FF1212CD900301E0B405C9120ED0E0FF8E
:1008B5001212CD80BF900302120EDFE4FCFD7BA077
:1008C5007A867901F8120252120EA79003037C274B
:1008D5007D10120E999003047C037DE8120E999009
:1008E5000305120EDF7C007D6412020FE4120EA6D2
:1008F500900306120EDF7C007D0A12020FE4120E31
:10090500A6900308120EDF120EA48035D204120938
:10091500DA9002A08032120FAD80031210589003B6
:1009250000EFF0E0900192120EB280031210AB12AC
:100935000D4E7D01E4FF12132D7B017A02795E8055
:100945000AE41209C490029A1203E11212569001A8
:10095500E27405F0223004669002FFE06435702CE5
:100965009001E3E0C394054002E4F0E4FDFF1213B7
:100975002D9001E3E0FF04F0EF75F003A4244DF59D
:1009850082E43402F5831203E10212569002FFE07D
:100995006436702A9001E3E02491F582E43402F58F
:1009A50083E0900001F0E4900000F01209C4900289
:0E09B5009A1203E1121256E49001E3F0C2041C
:1009C30022FDFF12132D9002971203E11212567D9E
:0F09D30001E4FF12132D227D01E4FF12132D22E8
:100FAD00E490030AF0A31203A400000000900309CB
:100FBD007414F0900309E0FFD39400403075F004F1
:100FCD00EF90018E120EB590030B12038CC312031A
:100FDD006F5012900309120EAD90030B120398EB94
:100FED001490030AF0900309E014F080C690030AF0
:020FFD00E0FF13
:010FFF0022CF
:10105800E490030AF0A31203A400004E20900309B1
:101068007414F0900309E0FFD39400403075F00445
:10107800EF90018E120EB590030B12038CD312035E
:101088006F4012900309120EAD90030B120398EBF8
:101098001490030AF0900309E014F080C690030A44
:0210A800E0FF67
:0110AA002223
:1010AB009003097414F0A31203A400000000900332
:1010BB0009E0FF14F0EF601FA3120380900309E017
:1010CB0075F0049001921203D512038C1202379023
:1010DB00030A12039880D790030A120380E47B144F
:1010EB00FAF9F81202DD90030A12039890030A1220
:0210FB00038070
:0110FD0022D0
:100D4E009003097404F0A312039890030A120EBBC9
:100D5E001202DDEB24309002648029900309E060DA
:100D6E003BE47B0AFAF9F8A31203801202DDEB24AE
:100D7E0030FF900309E0FE14F0745E2EF582E43429
:100D8E0002F583EFF090030A120380E47B0AFAF96E
:100D9E00F81202DD90030A12039880BF90030A1224
:100DAE000380EF2430FF900309E0245EF582E434E3
:050DBE0002F583EFF0D7
:010DC300220D
:100EF50075FFDE75FFAD75B167E4FFFE0FBF00013D
:100F05000EE4B507F7EEB401F3E5B130E7FB75B2D2
:100F150088E5B130E7FB75B20875B5FB75A5B87501
:100F2500A6FF75E10475E21075E344438E207589CB
:100F350091758AA3758CFF75CD3C75CCAF75CB3C8F
:0B0F450075CAAFC28DD2A9D28AD2AF0C
:010F5000227E
:070AFD00C1054203220000C5
:0E07EF00900322E4F0A3F075CD3C75CCAF2250
:03000B00020F5190
:100F5100C0E0C0F0C083C082C0D075D000C000C066
:100F610001C002C003C004C005C006C0071210FEC4
:100F7100758CFFE58A24A3F58A20001590025CE4B4
:100F810075F001120221D200900313E4F0A3740A58
:100F9100F0D007D006D005D004D003D002D001D0C4
:0C0FA10000D0D0D082D083D0F0D0E0325D
:03001300021000D8
:10100000C0E0C0F0C083C082C0D075D000C000C0B6
:0D10100001C002C003C004C005C006C00737
:10101D0020050BD2051207EFC2CFD2AD8012ADCC99
:10102D00ACCD900322E0FEA3E0FF120E2F1207EFCE
:10103D00D007D006D005D004D003D002D001D00007
:0B104D00D0D0D082D083D0F0D0E032B1
:03002B000211E7D8
:1011E700C0E0C0F0C083C082C0D075D000C000C3CB
:1011F700900323E094B0900322E094045009E4752F
:10120700F0011202218007C2AD1207F6C205C2CF54
:0D121700D000D0D0D082D083D0F0D0E03213
:100B040050030F000000000000000000000000007F
:0B0B1400000000C103C100C101C102CC
:0713760074FFF5F0020221F3
:1010FE0090030FE07002A3E0600890030F121376C6
:10110E008002C203900313E07002A3E06008900314
:10111E00131213768002C20090031BE07002A3E04C
:10112E00600890031B1213768002C20190031DE02B
:10113E007002A3E0600A90031D74FFF5F002022115
:03114E00C20222B8
:0A135C0053A0FE43A00253A0FD229F
:1012820090025DE02FFF90025CE03E90030CF0A321
:10129200EFF090030CE0FEA3E0FFC390025DE09F3D
:0712A20090025CE09E40EBAE
:0112A9002222
:0212E900AD074F
:1012EB00E47F04FE121282E5A054C3FFED540F25D8
:0612FB00E025E04FF5A024
:0113010022C9
:10130200AC07ECC4540FFF1212E912135CAF0412C3
:0613120012E912135C2237
:1012CD00AC07ECC4540FFF1212E943A00112135FD7
:0C12DD00AF041212E943A00112135F22BB
:101256009003091204017F047E0012128290030992
:101266001203E11201F66013900309E475F001120E
:0C12760003EA1201F6FF1212CD80E22202
:10132D00AE07ED7005EE24808003EE24C0FF12138E
:02133D0002228A
:1011A10053A0FD7F027E001212827F281211D912F4
:1011B10012827F0C1211D91212827F0112130212B4
:1011C100135F7F027E001212827F06121302121336
:1011D1005F7F027E0002128212130243A00253A01B
:0611E100FD7F027E0022EA
:0C0B1F00410321FF41031FFF41032000A0
:10115100120DC4EFB4FF0A90031F74FFF0E4A3F073
:1011610022900320E0FE700A90031FEFF0A37401A8
:10117100F022EEB41E0F900320741FF090031FE0C5
:10118100900321F022900320E0D3941E501190038C
:0F1191001FE0B50705A3E004F022E4900320F06F
:0111A000222C
:100DC400C293D294D297D2952092037F012220908D
:100DD400037F02222091037F0322D293C294D297ED
:100DE400D2952092037F04222090037F0522209134
:100DF400037F0622D293D294C297D2952092037F86
:100E040007222090037F08222091037F0922D29396
:100E1400D294D297C2952092037F0A222090037F16
:0B0E24000B222091037F0C227FFF2295
:08136600900321E0FF74FFF089
:01136E00225C
:10133F0020030E121151D20390030FE4F0A374197E
:02134F00F0228A
:1012AA009002FF1203989002FF020380F0EB900075
:1012BA000275F0040203D512038C0202379002FF72
:0312CA0002039884
:1006F2009002FF1203A400000000C206E49003036C
:10070200F0900001E0FF900303E0FEC39F5021EE52
:100712001212B81203807B407A42790F7800C3121A
:10072200036F5004D2068008900303E004F080D1E6
:10073200300634900001E0900303F0900303E0FFE1
:10074200602590FFFE1212BBC083C082120380E4B8
:100752007B64FAF9F81202DDD082D08312039890FA
:100762000303E014F080D4900001E014900303F03E
:10077200900303E060141212B0900303E0FB141222
:1007820012B61212C11212C780E61212B090000203
:100792001212C11212AAC007900001E0FBE4FAF99A
:1007A200F8D0071202DD1212AAE47B207A11F9F8BE
:1007B2001202521212AA7BA07A86790178001202E2
:1007C200DD1212C730060F1212B0E47B64FAF9F898
:1007D2001202521212C79002FF12038C7F007E4651
:0C07E2007DC37C231202DDE4900000F0D7
:0107EE0022E8
:0C0E2F009002EFECF0A3EDF0AB07AA0678
:100E3B00A31203A400000000900001E0FF9000004B
:100E4B00E0B50703D38001C34040AE02AF03E4FC1F
:100E5B00FD9002F11203989002F1120380E47B5093
:100E6B007AC3F9F81202529002F11203989002EF32
:100E7B00E0FEA3E0FFE4FCFDA31212C1900000E032
:0D0E8B00FB041212B61203988002C322D39A
:010E98002237
:06137D00900000E0FF22D9
:10122400E4900000F0900000E0FFC394645019754E
:10123400F004EF9000021203D51203A40000000092
:10124400900000E004F080DDE4900000F0A37464FA
:02125400F02286
:0A1351007F50900192E4F0A3DFFC4E
:01135B00226F
:100B2B00603A02B5FF6AFEA2FF06FF9C0064015EFD
:100B3B00025801F4012C0064FF9CFF38FF9C0064F9
:100B4B00FFC401F407D00CB21388196423282710B3
:0E0B5B002EE035B63E8046504E20520855F032
:10131800ED9480EC940C22ED946CEC940722ED94FF
:05132800C8EC94322224
:10040A00E4FBFAAC06AD07C31213184002A190C36D
:10041A0012131F400281CDED9490EC94014010ED2F
:10042A009420EC940350089002B5E0FAA3E0FBD3C1
:10043A00ED9420EC94034010ED9414EC94055008CC
:10044A009002B7E0FAA3E0FBD3ED9414EC940540D4
:10045A0010ED9478EC940550089002B9E0FAA3E004
:10046A00FBD3ED9478EC94054010ED94DCEC940504
:10047A0050089002BBE0FAA3E0FBD3ED94DCEC94C5
:10048A00054010ED9440EC940650089002BDE0FA45
:10049A00A3E0FBD3ED9440EC94064010ED94A4EC59
:1004AA00940650089002BFE0FAA3E0FBD3ED94A4AF
:1004BA00EC94065002C1ED12131F4002C1ED9002E6
:1004CA00C1C1E8D312131F4010ED94D0EC94075029
:1004DA00089002C3E0FAA3E0FBD3ED94D0EC9407B2
:1004EA004010ED9434EC940850089002C5E0FAA349
:1004FA00E0FBD3ED9434EC94084010ED9498EC941E
:10050A000850089002C7E0FAA3E0FBD3ED9498ECF8
:10051A0094084010ED94FCEC940850089002C9E04D
:10052A00FAA3E0FBD3ED94FCEC94084010ED94C4DC
:10053A00EC940950089002CBE0FAA3E0FBD3ED94C7
:10054A00C4EC94094010ED948CEC940A5008900283
:10055A00CDE0FAA3E0FBD3ED948CEC940A4010EDC5
:10056A009454EC940B50089002CFE0FAA3E0FBD32A
:10057A00ED9454EC940B5002C1ED1213184002C1D1
:10058A00ED9002D1C1E8C31213264002C15A1213D8
:10059A00184010ED94A0EC940F50089002D3E0FAA2
:1005AA00A3E0FBD3ED94A0EC940F4010ED947CEC07
:1005BA00941550089002D5E0FAA3E0FBD3ED947CA1
:1005CA00EC94154010ED9434EC942150089002D725
:1005DA00E0FAA3E0FBD3ED9434EC94214010ED94BF
:1005EA001CEC942550089002D9E0FAA3E0FBD3ED65
:1005FA00941CEC94254010ED9410EC94275008902C
:10060A0002DBE0FAA3E0FBD3ED9410EC9427401050
:10061A00ED9404EC942950089002DDE0FAA3E0FB83
:10062A00D3ED9404EC94294010ED94F8EC942A50FC
:10063A00089002DFE0FAA3E0FBD3ED94F8EC942AE9
:10064A005002C1ED1213264002C1ED9002E1C1E849
:10065A00D31213264010ED94BCEC94345008900247
:10066A00E3E0FAA3E0FBD3ED94BCEC94344010ED44
:10067A00949DEC943550089002E5E0FAA3E0FBD390
:10068A00ED949DEC94354010ED94B0EC94365008FE
:10069A009002E7E0FAA3E0FBD3ED94B0EC94364085
:1006AA0010ED94AAEC943750089002E9E0FAA3E01E
:1006BA00FBD3ED94AAEC94374010ED94A4EC943853
:1006CA0050089002EBE0FAA3E0FBD3ED94A4EC947B
:1006DA00384010ED9498EC943A50089002EDE0FA04
:0706EA00A3E0FBAE02AF0329
:0106F10022E6
:03000000020CC22D
:0C0CC200787FE4F6D8FD758120020D0952
:10010000E709F608DFFA8046E709F208DFFA803EE1
:1001100088828C83E709F0A3DFFA8032E309F608CE
:10012000DFFA8078E309F208DFFA807088828C8336
:10013000E309F0A3DFFA806489828A83E0A3F608EA
:10014000DFFA805889828A83E0A3F208DFFA804CC4
:1001500080D280FA80C680D4806980F2803380109B
:1001600080A680EA809A80A880DA80E280CA803304
:1001700089828A83ECFAE493A3C8C582C8CCC5837C
:10018000CCF0A3C8C582C8CCC583CCDFE9DEE7804C
:100190000D89828A83E493A3F608DFF9ECFAA9F0CB
:1001A000EDFB2289828A83ECFAE0A3C8C582C8CC21
:1001B000C583CCF0A3C8C582C8CCC583CCDFEADE3A
:1001C000E880DB89828A83E493A3F208DFF980CC9C
:1001D00088F0EF60010E4E60C388F0ED2402B40495
:1001E0000050B9F582EB2402B4040050AF2323453C
:0601F00082239001507310
:1001F600BB010689828A83E0225002E722BBFE0207
:09020600E32289828A83E4932239
:10020F00EF8DF0A4A8F0CF8CF0A428CE8DF0A42E03
:02021F00FE22BD
:10022100C5F0F8A3E028F0C5F0F8E5821582700268
:060231001583E038F02205
:0D023700EF2BFFEE3AFEED39FDEC38FC2216
:0E024400C3EF9BFFEE9AFEED99FDEC98FC22B5
:10025200E88FF0A4CC8BF0A42CFCE98EF0A42CFC4B
:100262008AF0EDA42CFCEA8EF0A4CDA8F08BF0A4C9
:100272002DCC3825F0FDE98FF0A42CCD35F0FCEB28
:100282008EF0A4FEA9F0EB8FF0A4CFC5F02ECD39ED
:0F029200FEE43CFCEAA42DCE35F0FDE43CFC225A
:1002A10075F008758200EF2FFFEE33FECD33CDCC14
:1002B10033CCC58233C5829BED9AEC99E582984097
:1002C1000CF582EE9BFEED9AFDEC99FC0FD5F0D674
:1002D100E4CEFBE4CDFAE4CCF9A88222B800C1B99E
:1002E1000059BA002DEC8BF084CFCECDFCE5F0CBDC
:1002F100F97818EF2FFFEE33FEED33FDEC33FCEB15
:1003010033FB10D703994004EB99FB0FD8E5E4F9CF
:10031100FA227818EF2FFFEE33FEED33FDEC33FCBC
:10032100C933C910D7059BE99A4007EC9BFCE99AB0
:10033100F90FD8E0E4C9FAE4CCFB2275F010EF2FF5
:10034100FFEE33FEED33FDCC33CCC833C810D707F5
:100351009BEC9AE899400AED9BFDEC9AFCE899F830
:0E0361000FD5F0DAE4CDFBE4CCFAE4C8F922C3
:10036F00EB9FF5F0EA9E42F0E99D42F0E89C45F0E4
:01037F00225B
:0C038000E0FCA3E0FDA3E0FEA3E0FF22F0
:0C038C00E0F8A3E0F9A3E0FAA3E0FB22F4
:0C039800ECF0A3EDF0A3EEF0A3EFF022D8
:1003A400A8828583F0D083D0821203BB1203BB12D0
:1003B40003BB1203BBE473E493A3C583C5F0C583F5
:1003C400C8C582C8F0A3C583C5F0C583C8C582C8A3
:0103D4002206
:0C03D500A42582F582E5F03583F5832233
:0903E100E0FBA3E0FAA3E0F9221D
:1003EA00F8E0FBA3A3E0F925F0F0E582158270029C
:0703FA001583E0FA38F02240
:09040100EBF0A3EAF0A3E9F022FC
:100CCE00020B6AE493A3F8E493A34003F68001F2C7
:100CDE0008DFF48029E493A3F85407240CC8C33327
:100CEE00C4540F4420C8834004F456800146F6DFF6
:100CFE00E4800B01020408102040809009E2E47E9B
:100D0E00019360BCA3FF543F30E509541FFEE493EA
:100D1E00A360010ECF54C025E060A840B8E493A3B1
:100D2E00FAE493A3F8E493A3C8C582C8CAC583CADC
:100D3E00F0A3C8C582C8CAC583CADFE9DEE780BE94
:010B6900008B
:00000001FF
